:100000000C9462000C948A000C948A000C948A0070
:100010000C948A000C948A000C948A000C948A0038
:100020000C948A000C948A000C948A000C948A0028
:100030000C948A000C948A000C948A000C948A0018
:100040000C94B4020C948A000C945D040C94AB04E0
:100050000C948A000C948A000C948A000C948A00F8
:100060000C948A000C948A000000000024002700F1
:100070002A0000000000250028002B0000000000DE
:1000800023002600290004040404040404040202DA
:100090000202020203030303030301020408102007
:1000A0004080010204081020010204081020000012
:1000B0000007000201000003040600000000000029
:1000C0000000170611241FBECFEFD8E0DEBFCDBF62
:1000D00011E0A0E0B1E0E0EFFDE002C005900D927C
:1000E000A235B107D9F712E0A2E5B1E001C01D9237
:1000F000A231B107E1F710E0C4ECD0E004C02297D0
:10010000FE010E94B006C23CD107C9F70E94D40389
:100110000C94F6060C940000A0E0B0E0E2E9F0E0F8
:100120000C94C006EC012B016A016115710519F0F0
:10013000FB0191838083C114D10449F0C601029769
:10014000839728F020E030E040E050E0DCC0A99048
:100150008A2D90E00E94B406892BC9F7FDE2AF1604
:1001600021F4A9903324339405C08BE2A81609F436
:10017000A9903324C114D10421F0E0E1CE16D104BA
:1001800011F5F0E3AF1669F48881883711F08835EE
:1001900041F4A980229682E0382A20E1C22ED12C97
:1001A00012C0C114D10479F4E0E3AE1659F199E913
:1001B000E92E99E9F92E99E9092F99E1192F8AE099
:1001C000C82ED12C3AC0FAE0CF16D10491F080E1CC
:1001D000C816D10429F0E8E0CE16D104F9F415C010
:1001E000BFEFEB2EBFEFFB2EBFEF0B2FBFE01B2FA0
:1001F00024C0A9E9EA2EA9E9FA2EA9E90A2FA9E162
:100200001A2F1BC0F8E0CF2ED12CEFEFEE2EEFEF20
:10021000FE2EEFEF0E2FEFE11E2F0FC096014427A9
:1002200037FD4095542F6FEF7FEF8FEF9FEF0E94C8
:100230008C06C901DA017C018D0120E030E040E04C
:1002400050E060E03601882477FC8094982C70EDB3
:10025000B72EBA0CF9E0FB1570F48A2D81548A315F
:1002600018F499ECB92E06C08A2D81568A3148F5CA
:1002700089EAB82EBA0C8B2D90E08C159D050CF5F3
:100280006F3FE9F0E216F30604071507B8F0CA015C
:10029000B901A40193010E946D069B01AC018B2D55
:1002A00090E0A0E0B0E0280F391F4A1F5B1F28171D
:1002B00039074A075B0710F061E001C06FEFA990B2
:1002C000C6CF4114510451F0662311F0219703C0A9
:1002D00031FE04C02297F201D183C08330FE07C0F3
:1002E00050954095309521953F4F4F4F5F4F67FF99
:1002F0000AC082E290E090931102809310022FEFE7
:100300003FEF4FEF5FEFB901CA01CDB7DEB7E1E1D3
:100310000C94DC068AE061E00E94800381E090E0BA
:100320000E94FC028AE060E00E9480030895682F2A
:1003300061708BE00E9480030E948A010895EF9211
:10034000FF920F931F93CF93DF938C01C0E0D0E017
:1003500081E0E82EF12CC7010C2E02C0880F991FF6
:100360000A94E2F7802391230C2E02C0969587957C
:100370000A94E2F70E9497012196C031D10559F7FE
:10038000DF91CF911F910F91FF90EF900895CF9340
:10039000DF938AE060E00E9480038BE060E00E94CF
:1003A0008003C0E0D0E08AE061E00E94800381E049
:1003B00090E00E94FC028AE060E00E94800381E0FD
:1003C00090E00E94FC022196C031D10561F7DF91D7
:1003D000CF91089588E060E00E94800389E060E0AA
:1003E0000E94800381E090E00E94FC020E94C7010D
:1003F0000E94C7010E94C7010E94C7010E94C70155
:100400000E94C70181E090E00E94FC0289E061E067
:100410000E94800308958EEE91E00E946D051816EB
:1004200019060CF05EC08EEE91E00E949E05282F0A
:1004300080915201909153010097E1F4223719F015
:10044000273789F403C00E94EA01089582E090E012
:1004500090935301809352011092570110925601CC
:1004600010925C0108958EEE91E060E071E00E94D0
:10047000490408950297A9F580915601909157017A
:10048000FC01E85AFE4F2083019690935701809318
:100490005601049734F188E591E060E070E040E1B6
:1004A00050E00E948C00709355016093540189E0E4
:1004B00060E00E94800380915401909155010E9458
:1004C0009F0189E061E00E94800388E061E00E9472
:1004D000800310925701109256011092530110920E
:1004E000520108950F931F9388E061E00E94410339
:1004F00088E060E00E9480038BE061E00E9441039D
:100500008AE061E00E9441038AE060E00E9480038B
:1005100089E061E00E94410389E060E00E9480037D
:100520000EEE11E0C80140E855E260E070E00E9484
:10053000E604C80163E371E00E9449040E94EA01F5
:10054000C80160E471E00E94490489E061E00E9412
:10055000800388E060E00E94800388E061E00E9400
:1005600080031F910F9108951F920F920FB60F9263
:1005700011242F933F938F939F93AF93BF938091B9
:10058000610190916201A0916301B0916401309189
:1005900065010196A11DB11D232F2D5F2D3720F080
:1005A0002D570196A11DB11D209365018093610116
:1005B00090936201A0936301B093640180915D0107
:1005C00090915E01A0915F01B09160010196A11D23
:1005D000B11D80935D0190935E01A0935F01B09384
:1005E0006001BF91AF919F918F913F912F910F909B
:1005F0000FBE0F901F901895019739F0880F991F23
:10060000880F991F02970197F1F70895789484B5A0
:10061000826084BD84B5816084BD85B5826085BDFE
:1006200085B5816085BDEEE6F0E0808181608083E4
:10063000E1E8F0E0108280818260808380818160C7
:100640008083E0E8F0E0808181608083E1EBF0E08E
:10065000808184608083E0EBF0E080818160808332
:10066000EAE7F0E08081846080838081826080831B
:100670008081816080838081806880831092C10046
:100680000895CF93DF93482F50E0CA0186569F4FBD
:10069000FC0134914A575F4FFA018491882369F134
:1006A00090E0880F991FFC01E859FF4FA591B49184
:1006B000FC01EE58FF4FC591D491662351F42FB73A
:1006C000F8948C91932F909589238C93888189231A
:1006D0000BC0623061F42FB7F8948C91932F9095F2
:1006E00089238C938881832B88832FBF06C09FB773
:1006F000F8948C91832B8C939FBFDF91CF910895B9
:10070000482F50E0CA0182559F4FFC012491CA0135
:1007100086569F4FFC0194914A575F4FFA013491DE
:10072000332309F440C0222351F1233071F02430E7
:1007300028F42130A1F0223011F514C02630B1F098
:100740002730C1F02430D9F404C0809180008F7725
:1007500003C0809180008F7D8093800010C084B59D
:100760008F7702C084B58F7D84BD09C08091B000B1
:100770008F7703C08091B0008F7D8093B000E32F0E
:10078000F0E0EE0FFF1FEE58FF4FA591B4912FB789
:10079000F894662321F48C919095892302C08C9162
:1007A000892B8C932FBF0895CF93DF930E9406036C
:1007B0000E947202C8E9D4E00E940B022097E1F384
:1007C0000E949804F9CFCF92DF92EF92FF920F939D
:1007D0001F93CF93DF937C016B018A01C0E0D0E0CF
:1007E0000FC0D6016D916D01D701ED91FC91019083
:1007F000F081E02DC7010995C80FD91F01501040A5
:100800000115110571F7CE01DF91CF911F910F9165
:10081000FF90EF90DF90CF900895EF92FF920F93AB
:100820001F938C01DC01ED91FC910190F081E02D92
:100830006DE009957C01D801ED91FC910190F0816A
:10084000E02DC8016AE009959C012E0D3F1DC901EC
:100850001F910F91FF90EF900895CF93DF93EC01DC
:100860006115710519F420E030E00FC0DB010D9037
:100870000020E9F71197A61BB70BE881F9810280E8
:10088000F381E02DAD0109959C01C901DF91CF9164
:100890000895EF92FF920F931F937C010E942D0405
:1008A0008C01C7010E940D04080F191FC8011F9178
:1008B0000F91FF90EF90089508951F920F920FB639
:1008C0000F9211242F933F934F938F939F93EF9306
:1008D000FF938091C00082FD1DC04091C600209111
:1008E000A6013091A7012F5F3F4F2F733070809189
:1008F000A8019091A9012817390771F0E091A6018C
:10090000F091A701EA59FE4F40833093A70120934D
:10091000A60102C08091C600FF91EF919F918F9137
:100920004F913F912F910F900FBE0F901F901895F0
:10093000E091FA01F091FB01E05CFF4F8191919110
:1009400020813181821B930B8F739070892B11F062
:100950000E945C0408951F920F920FB60F9211240B
:100960002F933F938F939F93EF93FF932091EA01EF
:100970003091EB018091EC019091ED01281739073E
:1009800031F48091C1008F7D8093C10014C0E0914B
:10099000EC01F091ED01E655FE4F20818091EC01D4
:1009A0009091ED0101968F7390709093ED0180937B
:1009B000EC012093C600FF91EF919F918F913F91A1
:1009C0002F910F900FBE0F901F901895AF92BF926E
:1009D000DF92EF92FF920F931F93CF93DF93EC017F
:1009E0007A018B01DD24403081EE580780E06807F2
:1009F00080E0780711F0DD24D39491E0A92EB12C8A
:100A0000EC89FD89DD2069F0C50108A002C0880FCE
:100A1000991F0A94E2F7808360E079E08DE390E02B
:100A200005C0108260E874E88EE190E0A8019701AB
:100A30000E948C06215030404040504056954795CA
:100A40003795279580E12030380720F0DD2011F020
:100A5000DD24D6CFE889F9893083EA89FB892083B0
:100A600019A2EE89FF89408121E030E0C9010C8C98
:100A700002C0880F991F0A94E2F7482B4083EE8941
:100A8000FF894081C9010D8C02C0880F991F0A940B
:100A9000E2F7482B4083EE89FF894081C9010E8C23
:100AA00002C0880F991F0A94E2F7482B4083EE8911
:100AB000FF8980810F8C02C0220F331F0A94E2F756
:100AC000209528232083DF91CF911F910F91FF90D4
:100AD000EF90DF90BF90AF900895DC011C96ED91F0
:100AE000FC911D97E05CFF4F2191319180819181B4
:100AF000281B390B2F733070C9010895DC011C9637
:100B0000ED91FC911D97E05CFF4F20813181E05415
:100B1000F040DF01AE5BBF4F8D919C91119728177C
:100B2000390719F42FEF3FEF07C08D919C91E80F23
:100B3000F91F8081282F30E0C9010895DC011C963F
:100B4000ED91FC911D97E05CFF4F20813181E054D5
:100B5000F040DF01AE5BBF4F8D919C91119728173C
:100B6000390719F42FEF3FEF10C08D919C91119729
:100B7000E80FF91F20818D919C91119701968F7339
:100B8000907011969C938E9330E0C9010895DC011A
:100B900091968C919197882339F05496ED91FC9120
:100BA0005597808186FFF9CF91961C920895CF9337
:100BB000DF93EC01EE85FF85E05CFF4F2081318102
:100BC000E054F0402F5F3F4F2F733070DF01AE5B7A
:100BD000BF4F8D919C91119728173907D1F3E05C95
:100BE000FF4F80819181E054F040E80FF91F60834E
:100BF000EE85FF85E05CFF4F31832083EE89FF891E
:100C0000208181E090E00F8C02C0880F991F0A9428
:100C1000E2F7282B208381E089A3EC89FD8980817C
:100C20008064808381E090E0DF91CF9108951092FD
:100C3000F1011092F00188EE93E0A0E0B0E0809323
:100C4000F2019093F301A093F401B093F50186E4CF
:100C500091E09093EF018093EE0186E691E090930E
:100C6000FB018093FA018AEA91E09093FD01809361
:100C7000FC0185EC90E09093FF018093FE0184ECF1
:100C800090E0909301028093000280EC90E09093BA
:100C900003028093020281EC90E09093050280931E
:100CA000040282EC90E0909307028093060286ECA7
:100CB00090E0909309028093080284E080930A02F6
:100CC00083E080930B0287E080930C0285E08093A1
:100CD0000D0281E080930E020895629FD001739F00
:100CE000F001829FE00DF11D649FE00DF11D929FC8
:100CF000F00D839FF00D749FF00D659FF00D992707
:100D0000729FB00DE11DF91F639FB00DE11DF91F2A
:100D1000BD01CF0111240895A1E21A2EAA1BBB1B0D
:100D2000FD010DC0AA1FBB1FEE1FFF1FA217B307B7
:100D3000E407F50720F0A21BB30BE40BF50B661FCD
:100D4000771F881F991F1A9469F760957095809591
:100D500090959B01AC01BD01CF010895EE0FFF1FDF
:100D60000590F491E02D0994911106C0803219F09C
:100D700089508550D0F708959927882708952F9294
:100D80003F924F925F926F927F928F929F92AF921B
:100D9000BF92CF92DF92EF92FF920F931F93CF9368
:100DA000DF93CDB7DEB7CA1BDB0B0FB6F894DEBFFF
:100DB0000FBECDBF09942A88398848885F846E8425
:100DC0007D848C849B84AA84B984C884DF80EE806F
:100DD000FD800C811B81AA81B981CE0FD11D0FB678
:100DE000F894DEBF0FBECDBFED010895F894FFCF9C
:100DF00075736167653A2027722720746F207265CA
:100E00007365742C20277778787878272077697431
:100E1000682078203D2034206865782064696769FF
:100E200074730048656C6C6F20576F726C6421009E
:100E30003E0000000000D705E3036D059E057E051A
:020E4000C705E4
:00000001FF
